:100000000C943A000C9457000C9457000C94570031
:100010000C9463060C948C060C943A060C9411060E
:100020000C9457000C94E8050C9441050C941805A9
:100030000C94D9040C94B5060C94DE060C940707B6
:100040000C94EF030C9457000C9457000C94570039
:100050000C945700450369036E0373037B032E035F
:10006000820387038C032E039E03A503AC03B30313
:10007000BA03C50311241FBECFE5D8E0DEBFCDBF54
:1000800010E0A0E6B0E0EEE5F9E102C005900D92C7
:10009000AE36B107D9F720E0AEE6B0E001C01D9260
:1000A000A138B207E1F70E94F8020C94AD0C0C9451
:1000B000000061E084E10E94330461E085E10E9478
:1000C000330461E086E10E94330461E087E10E942D
:1000D000330460E080E00E9433040E94D00380E09B
:1000E0000E94DF03089561E086E10E947B04089589
:1000F00060E086E10E947B04089561E087E10E9450
:100100007B04089560E087E10E947B040895CF930B
:10011000C82F80916F0081110DC0C93128F061E0B6
:1001200087E10E947B0406C0C23120F460E087E1D1
:100130000E947B04C33358F00E94730061E084E1A5
:100140000E947B0461E085E10E947B040CC0C33205
:1001500050F40E94780060E084E10E947B0460E03B
:1001600085E10E947B04CF9108958AE50E94720187
:10017000089586EA0E9472010895CF93C0E009C0F5
:10018000EC2FF0E0E05AFF4F61E080810E943304E1
:10019000CF5FC430A8F360E0809164000E94330414
:1001A0000E940205CF910895833091F128F48130A7
:1001B00049F08230D1F008958430E9F1853009F4B6
:1001C0004DC00895613041F4E82FF0E0E15AFF4F4F
:1001D00080810E947B040895E82FF0E0E15AFF4FF0
:1001E00060E080810E947B040895613041F4E82F33
:1001F000F0E0E15AFF4F80810E947B040895E82FD0
:10020000F0E0E15AFF4F60E080810E947B04089596
:10021000613041F4E82FF0E0E15AFF4F80810E9405
:100220007B040895E82FF0E0E15AFF4F60E0808101
:100230000E947B040895613041F4E82FF0E0E15A18
:10024000FF4F80810E947B040895E82FF0E0E15A7F
:10025000FF4F60E080810E947B040895613041F48B
:10026000E82FF0E0E15AFF4F80810E947B0408955F
:10027000E82FF0E0E15AFF4F60E080810E947B04AC
:100280000895CF93C0E009C0EC2FF0E0E05AFF4F93
:1002900060E080810E947B04CF5FC530A8F3CF91DE
:1002A0000895CF93C0E009C0EC2FF0E0E05AFF4F73
:1002B00061E080810E947B04CF5FC530A8F3CF91BD
:1002C00008950E940F0508950E941405089561E0A5
:1002D0008DE10E9433040E946A0582E390E00E944F
:1002E000D1050895865A682F70E080E090E00E9462
:1002F00043082CE137EC41E350E40E94F50820E08C
:1003000030E048EC52E40E94A20720E030E040EAEE
:1003100050E40E9431070E9485050E9481050895DE
:100320000F931F93CF93DF93C82FD0E0062F10E0D9
:10033000CE0102C0959587956A95E2F7BC01617080
:1003400088E00E947B04C8010196BE0102C0759539
:1003500067958A95E2F7617089E00E947B04C80185
:100360000296BE0102C0759567958A95E2F76170A5
:100370008AE00E947B040D5F1F4F02C0D595C79590
:100380000A95E2F76C2F617087E00E947B04DF9191
:10039000CF911F910F91089561E082E00E947B044C
:1003A00080EA8A95F1F760E082E00E947B0408957C
:1003B000CF93C82F60E083E00E947B0464E08C2F21
:1003C0000E9490010E94CC0160E08C2F0E9490015D
:1003D0000E94CC0180EF8A95F1F7CF91089561E0FA
:1003E00083E00E94330461E082E00E94330461E014
:1003F00088E00E94330461E089E00E94330461E0F8
:100400008AE00E94330461E087E00E9433042FEF0A
:1004100083EF91E0215080409040E1F700C0000060
:1004200060E082E00E9490010E94CC0188E20E947C
:10043000D80120EF2A95F1F78FE00E94D80180EFD4
:100440008A95F1F781E00E94D8018FE39FE101973F
:10045000F1F700C0000086E00E94D80190EF9A9565
:10046000F1F70895CF93C82F61E083E00E947B04E9
:1004700064E08C2F0E9490010E94CC0160E08C2FE0
:100480000E9490010E94CC01CF9108951F93CF93B9
:10049000DF93D82F162FC0E00AC0112321F080E18E
:1004A0000E94D80103C084E10E94D801CF5FCD171C
:1004B000A4F3DF91CF911F910895CF93C62F82307F
:1004C000A1F018F4813031F033C08330D1F08430A2
:1004D00021F12EC080E80E94D80160E08FEF8C0FE0
:1004E0000E94460210926E0023C080EC0E94D80148
:1004F00060E08FEF8C0F0E94460285E180936E00D2
:1005000017C084E90E94D80160E08FEF8C0F0E9431
:10051000460289E280936E000BC084ED0E94D801F0
:1005200060E08FEF8C0F0E9446028DE380936E0097
:10053000CF910895CF93DF93EC0120C080916E009E
:10054000843121F0883211F08C3381F4803511F43C
:1005500010926E0080916E009DEC899F812D112478
:1005600082958F7060E08F5F0E945D0289910E948A
:10057000320280916E008F5F80936E0088818111BE
:10058000DDCFDF91CF9108950F931F93CF93DF932A
:10059000CDB7DEB764970FB6F894DEBF0FBECDBF00
:1005A0009F938F937F936F9389E690E09F938F93B0
:1005B0008E010F5F1F4F1F930F930E94C309C80145
:1005C0000E949A020FB6F894DEBF0FBECDBF6496AC
:1005D0000FB6F894DEBF0FBECDBFDF91CF911F9154
:1005E0000F91089584E60E94D404809380000895BA
:1005F000CF93DF93CDB7DEB728970FB6F894DEBF61
:100600000FBECDBF0E94EF010E94BD000E94670196
:100610000E9459000E94AA0460E08FE00E94330407
:1006200060E08CE00E94330461E08EE00E943304BD
:1006300060E08DE00E94330480E489831A8280E2C6
:100640008B831C821D8280E88E8382EF92E09887E4
:100650008F83CE0101960E94B20410E060E082E038
:100660000E945D026091800070E080E090E00E9456
:10067000C402E09180008E2F90E08031910570F7E8
:10068000FC01E65DFF4F0C94A30980E00E94DF03AC
:100690000E94E7036C01E12CF12CA4E6B0E0A70175
:1006A00096010E94B809DC01CB01072E7AE0B695CD
:1006B000A795979587957A95D1F7702D0E94870019
:1006C00060E083E00E945D02C701B6010E94C4029F
:1006D000C5CF0E94B50010928000C0CF0E94B90023
:1006E00010928000BBCF0E947D0081E080936F005C
:1006F00010928000B3CF0E94820010926F0010927F
:100700008000ACCF0E94510110928000A7CF0E94C0
:10071000410110928000A2CF111107C00E94AA04CB
:100720000E94610181E0182706C00E94AE040E9469
:10073000640181E018271092800090CF61E081E091
:100740000E94D4001092800089CF60E081E00E9476
:10075000D4001092800082CF61E082E00E94D40039
:10076000109280007BCF60E082E00E94D400109263
:10077000800074CF61E083E00E94D40061E084E0F7
:100780000E94D4001092800069CF60E083E00E9454
:10079000D40060E084E00E94D400109280005ECF1C
:1007A00086B1876086B987B18F73806487B987B156
:1007B00087B986B186B986B1806886B9089597B140
:1007C000907E892B87B986B1806486B90895349B61
:1007D000FECF86B1806186B984B195B108951F922C
:1007E0000F920FB60F9211242F933F934F935F9365
:1007F0006F937F938F939F93AF93BF93EF93FF93E9
:10080000E0917000F0917100309709F00995FF9127
:10081000EF91BF91AF919F918F917F916F915F9178
:100820004F913F912F910F900FBE0F901F901895F1
:10083000FC0180818850883020F4808326E330E0FA
:1008400002C029E330E090819051983018F49083F1
:1008500023E330E090819851983018F4908320E39E
:1008600030E0C90108951F93CF93DF931F92CDB756
:10087000DEB78983162FCE0101960E941804FC0171
:10088000123089F4218181E090E0098002C0880F54
:10089000991F0A94E2F7982F909592239183928161
:1008A000892B828323C0111111C0218181E090E046
:1008B000098002C0880F991F0A94E2F78095922F51
:1008C0009823918392818923828310C0218181E0C2
:1008D00090E0098002C0880F991F0A94E2F7282B44
:1008E0002183133019F49281892B82830F90DF9139
:1008F000CF911F9108951F93CF93DF931F92CDB790
:10090000DEB78983162FCE0101960E9418041111BB
:100910000EC0FC01428121E030E0098002C0220FBC
:10092000331F0A94E2F72095242322830EC011304E
:1009300061F4FC01428121E030E0098002C0220F15
:10094000331F0A94E2F7242B22830F90DF91CF917B
:100950001F9108958FB780688FBF08958FB78F77E5
:100960008FBF0895FC0184819CEF980F943028F488
:100970008EB181608EB9848184509081892B918160
:10098000892B9281892B9381892B9581892B903892
:1009900049F4268137812115310521F03093730008
:1009A000209372008DB908958FB9779BFECF8FB1D8
:1009B00008951F920F920FB60F9211242F933F9319
:1009C0004F935F936F937F938F939F93AF93BF9357
:1009D000EF93FF93E0917200F0917300309709F06C
:1009E0000995FF91EF91BF91AF919F918F917F9169
:1009F0006F915F914F913F912F910F900FBE0F908C
:100A00001F90189583B7806483BF83B7886083BFC6
:100A100083B7806183BF83B7806283BF089583B744
:100A2000887F836083BF089583B7887F83BF0895DD
:100A30001F920F920FB60F9211242F933F934F9353
:100A40005F936F937F938F939F93AF93BF93EF9336
:100A5000FF93E0917400F0917500309709F00995CB
:100A6000FF91EF91BF91AF919F918F917F916F9186
:100A70005F914F913F912F910F900FBE0F901F905C
:100A800018951F920F920FB60F9211242F933F9338
:100A90004F935F936F937F938F939F93AF93BF9386
:100AA000EF93FF93E0917400F0917500309709F097
:100AB0000995FF91EF91BF91AF919F918F917F9198
:100AC0006F915F914F913F912F910F900FBE0F90BB
:100AD0001F9018958FB58E7F8FBD8FB582608FBDAB
:100AE0008EB588608EBD8EB580618EBD8FB58068F5
:100AF0008FBD8FB58FBD08959EB5987F892B8EBD14
:100B0000089583E00E947C050895CF92DF92EF92D2
:100B1000FF926B017C0120E030E048EC52E40E943F
:100B20009D07181694F120E030E0A901C701B60135
:100B30000E949D07882361F1809165009091660075
:100B400097BD86BD8091650090916600A091670079
:100B5000B0916800BC01CD016F5F7F4F8F4F9F4FF9
:100B60000E944308A70196010E94F50820E030E0AA
:100B700048EC52E40E94A20720E030E040E85FE346
:100B80000E9430070E94140805C060E070E002C0B7
:100B900060E070E07BBD6ABDFF90EF90DF90CF908A
:100BA00008959C0140E050E060E970ED83E090E042
:100BB0000E948409DA01C9010197A109B109809352
:100BC000650090936600A0936700B0936800089555
:100BD0001F920F920FB60F9211242F933F934F93B2
:100BE0005F936F937F938F939F93AF93BF93EF9395
:100BF000FF93E0917600F0917700309709F0099526
:100C0000FF91EF91BF91AF919F918F917F916F91E4
:100C10005F914F913F912F910F900FBE0F901F90BA
:100C200018951F920F920FB60F9211242F933F9396
:100C30004F935F936F937F938F939F93AF93BF93E4
:100C4000EF93FF93E0917600F0917700309709F0F1
:100C50000995FF91EF91BF91AF919F918F917F91F6
:100C60006F915F914F913F912F910F900FBE0F9019
:100C70001F9018951F920F920FB60F9211242F9369
:100C80003F934F935F936F937F938F939F93AF9314
:100C9000BF93EF93FF93E0917600F0917700309748
:100CA00009F00995FF91EF91BF91AF919F918F91BD
:100CB0007F916F915F914F913F912F910F900FBE58
:100CC0000F901F9018951F920F920FB60F9211243C
:100CD0002F933F934F935F936F937F938F939F9344
:100CE000AF93BF93EF93FF93E0917800F091790079
:100CF000309709F00995FF91EF91BF91AF919F91C6
:100D00008F917F916F915F914F913F912F910F90B4
:100D10000FBE0F901F9018951F920F920FB60F9253
:100D200011242F933F934F935F936F937F938F93F0
:100D30009F93AF93BF93EF93FF93E0917800F0916F
:100D40007900309709F00995FF91EF91BF91AF912C
:100D50009F918F917F916F915F914F913F912F91D3
:100D60000F900FBE0F901F9018951F920F920FB605
:100D70000F9211242F933F934F935F936F937F9321
:100D80008F939F93AF93BF93EF93FF93E0917E0078
:100D9000F0917F00309709F00995FF91EF91BF9195
:100DA000AF919F918F917F916F915F914F913F9103
:100DB0002F910F900FBE0F901F9018951F920F92BA
:100DC0000FB60F9211242F933F934F935F936F931E
:100DD0007F938F939F93AF93BF93EF93FF93E09194
:100DE0007C00F0917D00309709F00995FF91EF911B
:100DF000BF91AF919F918F917F916F915F914F9133
:100E00003F912F910F900FBE0F901F9018951F923A
:100E10000F920FB60F9211242F933F934F935F932E
:100E20006F937F938F939F93AF93BF93EF93FF93B2
:100E3000E0917A00F0917B00309709F00995FF91DD
:100E4000EF91BF91AF919F918F917F916F915F9142
:100E50004F913F912F910F900FBE0F901F901895BB
:100E60005058BB27AA270E9448070C94BB080E9431
:100E7000AD0838F00E94B40820F039F49F3F19F40F
:100E800026F40C94AA080EF4E095E7FB0C94A40851
:100E9000E92F0E94CC0858F3BA176207730784073A
:100EA000950720F079F4A6F50C94EE080EF4E09581
:100EB0000B2EBA2FA02D0B01B90190010C01CA0114
:100EC000A0011124FF27591B99F0593F50F4503EBF
:100ED00068F11A16F040A22F232F342F4427585FB1
:100EE000F3CF469537952795A795F0405395C9F7C9
:100EF0007EF41F16BA0B620B730B840BBAF0915081
:100F0000A1F0FF0FBB1F661F771F881FC2F70EC01F
:100F1000BA0F621F731F841F48F4879577956795F2
:100F2000B795F7959E3F08F0B0CF9395880F08F0DE
:100F30009927EE0F9795879508950E94800808F4E9
:100F400081E008950E94B6070C94BB080E94B40883
:100F500058F00E94AD0840F029F45F3F29F00C944E
:100F6000A40851110C94EF080C94AA080E94CC0814
:100F700068F39923B1F3552391F3951B550BBB27C8
:100F8000AA2762177307840738F09F5F5F4F220F0D
:100F9000331F441FAA1FA9F335D00E2E3AF0E0E804
:100FA00032D091505040E695001CCAF72BD0FE2F4E
:100FB00029D0660F771F881FBB1F261737074807E2
:100FC000AB07B0E809F0BB0B802DBF01FF2793589A
:100FD0005F4F3AF09E3F510578F00C94A4080C94B2
:100FE000EF085F3FE4F3983ED4F3869577956795D5
:100FF000B795F7959F5FC9F7880F911D96958795CF
:1010000097F90895E1E0660F771F881FBB1F6217ED
:1010100073078407BA0720F0621B730B840BBA0BAB
:10102000EE1F88F7E09508950E94D40888F09F5736
:1010300098F0B92F9927B751B0F0E1F0660F771FFC
:10104000881F991F1AF0BA95C9F714C0B13091F0F2
:101050000E94EE08B1E008950C94EE08672F782FF7
:101060008827B85F39F0B93FCCF3869577956795B7
:10107000B395D9F73EF490958095709561957F4F23
:101080008F4F9F4F0895E89409C097FB3EF49095C9
:101090008095709561957F4F8F4F9F4F9923A9F051
:1010A000F92F96E9BB279395F695879577956795E0
:1010B000B795F111F8CFFAF4BB0F11F460FF1BC024
:1010C0006F5F7F4F8F4F9F4F16C0882311F096E9B7
:1010D00011C0772321F09EE8872F762F05C0662365
:1010E00071F096E8862F70E060E02AF09A95660F1E
:1010F000771F881FDAF7880F9695879597F90895D7
:10110000990F0008550FAA0BE0E8FEEF1616170618
:10111000E807F907C0F012161306E407F50798F080
:10112000621B730B840B950B39F40A2661F0232B99
:10113000242B252B21F408950A2609F4A140A69515
:101140008FEF811D811D089597F99F6780E870E0FA
:1011500060E008959FEF80EC089500240A9416162D
:10116000170618060906089500240A941216130695
:10117000140605060895092E0394000C11F4882323
:1011800052F0BB0F40F4BF2B11F460FF04C06F5F3F
:101190007F4F8F4F9F4F089557FD9058440F551F15
:1011A00059F05F3F71F04795880F97FB991F61F0E9
:1011B0009F3F79F087950895121613061406551F60
:1011C000F2CF4695F1DF08C0161617061806991FCC
:1011D000F1CF86957105610508940895E894BB27C1
:1011E00066277727CB0197F908950E9408090C9488
:1011F000BB080E94AD0838F00E94B40820F0952387
:1012000011F00C94A4080C94AA0811240C94EF0873
:101210000E94CC0870F3959FC1F3950F50E0551FC5
:10122000629FF001729FBB27F00DB11D639FAA273B
:10123000F00DB11DAA1F649F6627B00DA11D661F8A
:10124000829F2227B00DA11D621F739FB00DA11DAB
:10125000621F839FA00D611D221F749F3327A00D65
:10126000611D231F849F600D211D822F762F6A2F01
:1012700011249F5750409AF0F1F088234AF0EE0F66
:10128000FF1FBB1F661F771F881F91505040A9F793
:101290009E3F510580F00C94A4080C94EF085F3F2A
:1012A000E4F3983ED4F3869577956795B795F795CF
:1012B000E7959F5FC1F7FE2B880F911D9695879547
:1012C00097F90895A1E21A2EAA1BBB1BFD010DC0C0
:1012D000AA1FBB1FEE1FFF1FA217B307E407F507E6
:1012E00020F0A21BB30BE40BF50B661F771F881FC2
:1012F000991F1A9469F760957095809590959B0158
:10130000AC01BD01CF010895052E97FB1EF400949A
:101310000E949B0957FD07D00E94620907FC03D079
:101320004EF40C949B0950954095309521953F4F74
:101330004F4F5F4F089590958095709561957F4FC1
:101340008F4F9F4F0895EE0FFF1F0590F491E02DF2
:101350000994A29FB001B39FC001A39F700D811D8E
:101360001124911DB29F700D811D1124911D0895AE
:101370000E94A909A59F900DB49F900DA49F800D78
:10138000911D11240895AEE0B0E0E9ECF9E00C9471
:10139000840C0D891E8986E08C831A8309838FEF64
:1013A0009FE79E838D83AE01475E5F4F6F89788D87
:1013B000CE0101960E94E509EF81F885E00FF11F4B
:1013C00010822E96E4E00C94A00CABE0B0E0EBEEC3
:1013D000F9E00C94760C6C017B018A01FC01178208
:1013E0001682838181FFCCC1CE0101963C01F601BA
:1013F0009381F70193FD859193FF81917F0188236C
:1014000009F4BAC1853239F493FD859193FF819136
:101410007F01853229F4B60190E00E94DC0BE7CF12
:10142000912C212C312CFFE1F315D8F08B3279F07F
:1014300038F4803279F08332A1F4232D20611DC06D
:101440008D3261F0803369F4232D216016C0832D25
:101450008260382EE32DE4603E2E2AC0F32DF86022
:101460001DC037FC2DC020ED280F2A3040F08E32F1
:10147000B9F436FC81C1232D2064322E19C036FE0A
:1014800006C08AE0989E200D1124922E11C0EAE039
:101490002E9E200D1124222EF32DF0623F2E08C027
:1014A0008C3621F4832D8068382E02C0883641F4B2
:1014B000F70193FD859193FF81917F018111B3CF56
:1014C000982F9F7D9554933028F40C5F1F4F9FE316
:1014D00099830DC0833631F0833771F0833509F07D
:1014E00059C021C0F801808189830E5F1F4F882475
:1014F0008394912C530113C02801F2E04F0E511C2C
:10150000F801A080B18036FE03C0692D70E002C0F2
:101510006FEF7FEFC5010E94D10B4C018201F32DCB
:10152000FF773F2E16C0280122E0420E511CF80121
:10153000A080B18036FE03C0692D70E002C06FEF5D
:101540007FEFC5010E94C60B4C01F32DF0683F2EC2
:10155000820133FC1BC0822D90E088169906B0F4FE
:10156000B60180E290E00E94DC0B2A94F4CFF501F2
:1015700037FC859137FE81915F01B60190E00E94B2
:10158000DC0B21102A9421E0821A91088114910425
:1015900071F7E8C0843611F0893641F5F80137FE5D
:1015A00007C060817181828193810C5F1F4F08C0E9
:1015B00060817181072E000C880B990B0E5F1F4F05
:1015C000F32DFF763F2E97FF09C09095809570957B
:1015D00061957F4F8F4F9F4FF0683F2E2AE030E09C
:1015E000A3010E94180C882E861845C0853731F457
:1015F000232D2F7EB22E2AE030E025C0932D997F37
:10160000B92E8F36C1F018F4883579F0B5C080371F
:1016100019F0883721F0B0C0E92FE061BE2EB4FE8A
:101620000DC0FB2DF460BF2E09C034FE0AC0292F67
:101630002660B22E06C028E030E005C020E130E090
:1016400002C020E132E0F801B7FE07C0608171817D
:10165000828193810C5F1F4F06C06081718180E0A1
:1016600090E00E5F1F4FA3010E94180C882E861871
:10167000FB2DFF773F2E36FE0DC0232D2E7FA22E91
:10168000891458F434FE0BC032FC09C0832D8E7EC1
:10169000A82E05C0B82CA32C03C0B82C01C0B92CAF
:1016A000A4FE0FC0FE01E80DF11D8081803321F4FE
:1016B0009A2D997EA92E09C0A2FE06C0B394B394B8
:1016C00004C08A2D867809F0B394A3FC11C0A0FE53
:1016D00006C0B21488F4280C922C9B180EC0B214C9
:1016E00060F4B60180E290E00E94DC0BB394F7CF87
:1016F000B21418F42B1802C0982C212CA4FE10C090
:10170000B60180E390E00E94DC0BA2FE17C0A1FCB2
:1017100003C088E790E002C088E590E0B6010CC005
:101720008A2D867859F0A1FE02C08BE201C080E2CA
:10173000A7FC8DE2B60190E00E94DC0B891438F41E
:10174000B60180E390E00E94DC0B9A94F7CF8A9474
:10175000F301E80DF11D8081B60190E00E94DC0BE1
:101760008110F5CF222009F442CEB60180E290E04C
:101770000E94DC0B2A94F6CFF6018681978102C085
:101780008FEF9FEF2B96E2E10C94920CFC010590F9
:10179000615070400110D8F7809590958E0F9F1F73
:1017A0000895FC016150704001900110D8F78095B8
:1017B00090958E0F9F1F08950F931F93CF93DF93E4
:1017C000FB01238121FD03C08FEF9FEF2CC022FF7F
:1017D00016C046815781248135814217530744F44E
:1017E000A081B1819D012F5F3F4F318320838C9376
:1017F000268137812F5F3F4F3783268314C08B01AB
:10180000EC01FB010084F185E02D0995892BE1F6BF
:10181000D80116968D919C911797019617969C93D7
:101820008E931697CE01DF91CF911F910F9108955E
:10183000FA01AA27283051F1203181F1E8946F9301
:101840006E7F6E5F7F4F8F4F9F4FAF4FB1E03ED0A7
:10185000B4E03CD0670F781F891F9A1FA11D680F45
:10186000791F8A1F911DA11D6A0F711D811D911D78
:10187000A11D20D009F468943F912AE0269F1124ED
:101880003019305D3193DEF6CF010895462F477051
:10189000405D4193B3E00FD0C9F7F6CF462F4F70AC
:1018A000405D4A3318F0495D31FD4052419302D00A
:1018B000A9F7EACFB4E0A6959795879577956795B0
:1018C000BA95C9F700976105710508959B01AC01B0
:1018D0000A2E06945795479537952795BA95C9F7D7
:1018E000620F731F841F951FA01D08952F923F92B2
:1018F0004F925F926F927F928F929F92AF92BF9220
:10190000CF92DF92EF92FF920F931F93CF93DF93CB
:10191000CDB7DEB7CA1BDB0B0FB6F894DEBF0FBE28
:10192000CDBF09942A88398848885F846E847D8475
:101930008C849B84AA84B984C884DF80EE80FD8077
:101940000C811B81AA81B981CE0FD11D0FB6F894ED
:0E195000DEBF0FBECDBFED010895F894FFCFAE
:0E195E001011121314FFFF0000256C6400002E
:00000001FF
