:100000000C9440000C945D000C945D000C945D0019
:100010000C945D000C945D000C945D000C945D00EC
:100020000C945D000C945D000C945D000C945D00DC
:100030000C949D090C949A0B0C94C30B0C94EC0B30
:100040000C945D000C945D000C945D000C945D00BC
:100050000C945D0006030E0316031E0326032E03F5
:1000600036033A034E0356035E0366036E037603BC
:100070007E03B107BF07CD07DB07E907F7070207D4
:1000800011241FBECFE5D8E0DEBFCDBF16E0A0E64D
:10009000B0E0E0E9F8E102C005900D92A433B107A9
:1000A000D9F726E0A4E3B6E001C01D92A835B20757
:1000B000E1F70E942E040C94460C0C940000FF9271
:1000C0000F931F93CF93DF93C82F8B01D42F90658D
:1000D000F92E0E94030A8F2D0E94D9098C2F0E94AD
:1000E0002C0AC0E006C0F80181918F010E942C0A01
:1000F000CF5FCD17C0F30E941F0A8FE19EE40197E6
:10010000F1F700C00000DF91CF911F910F91FF9098
:100110000895FF920F931F93CF93DF93F82E8B01D7
:10012000D42FC92FC0650E94030A8C2F0E94D909C1
:100130008F2D0E942C0A0E94110A8C2F0E94EE091A
:10014000C0E010C02C2F30E08D2F90E001972817D1
:10015000390711F40E94480AC8010E94380A0F5F4B
:100160001F4FCF5FCD1770F38FE39CE90197F1F735
:1001700000C000000E941F0A8FE19EE40197F1F782
:1001800000C000000E94440ADF91CF911F910F919F
:10019000FF9008958FEF0E94C609089564E085E1FD
:1001A0000E94E70864E084E10E94E70864E083E1DC
:1001B0000E94E70864E082E10E94E70860E08FE1C6
:1001C0000E94E70860E08EE10E94E70860E08DE1B0
:1001D0000E94E70860E08CE10E94E7080895FF9222
:1001E0000F931F93CF93DF931F92CDB7DEB78EECA3
:1001F000898305E10F2EF0E5FF2EF02D42C063E06C
:10020000802F0E94E7081FE135C0BE016F5F7F4F5E
:10021000812F0E94A308898181112BC08FE59AEE5E
:100220000197F1F700C00000BE016F5F7F4F812F83
:100230000E94A308898181111CC085E190E0801B88
:1002400091092FE130E0211B3109880F991F880F98
:10025000991F805A9F4FFC01E20FF31FF08006C0E8
:10026000BE016F5F7F4F812F0E94A3088981882381
:10027000B9F311501C3148F664E0802F0E94E70862
:100280000150023108F0BBCF8F2D0F90DF91CF913D
:100290001F910F91FF900895CF93DF93D82FD295A0
:1002A000DF70C0E011C0EC2FF0E06D2F70E00C2E7D
:1002B00002C0759567950A94E2F76170E059FF4FA7
:1002C00080810E944208CF5FC43068F3DF91CF91F4
:1002D0000895CF93DF93D82FC0E011C0EC2FF0E04A
:1002E0006D2F70E00C2E02C0759567950A94E2F7A9
:1002F0006170E059FF4F80810E944208CF5FC43097
:1003000068F3DF91CF910895CF93C82F61E083E028
:100310000E9442088C2F0E944C0161E082E00E9402
:10032000420885E38A95F1F7000060E082E00E94D0
:1003300042088C2F0E94690161E082E00E9442081D
:1003400085E38A95F1F7000060E082E00E944208B0
:10035000CF910895CF93C82F60E083E00E944208B8
:100360008C2F0E944C0161E082E00E94420885E3EC
:100370008A95F1F7000060E082E00E9442088C2F2D
:100380000E94690161E082E00E94420885E38A954B
:10039000F1F7000060E082E00E944208CF910895EA
:1003A00063E083E00E94E70863E082E00E94E708E0
:1003B00063E088E00E94E70863E089E00E94E708C4
:1003C00063E08AE00E94E70863E08BE00E94E708B0
:1003D0002FE785EB91E0215080409040E1F700C08D
:1003E000000082E00E94AA0188E20E94AA018FE92F
:1003F0009FE00197F1F700C000008CE00E94AA0185
:100400008FE99FE00197F1F700C0000081E00E94B2
:10041000AA018FE39FE10197F1F700C0000086E099
:100420000E94AA018FE99FE00197F1F700C0000048
:10043000089581E00E94AA0108950F931F93CF931E
:100440008C01C0E003C00E948401CF5FF801EC0F73
:10045000F11D80818111F7CFCF911F910F910895E8
:10046000CF93611571058105910579F02AE030E09F
:1004700040E050E00E94150CC62FCA01B9010E944D
:10048000300280E38C0F0E948401CF910895813067
:1004900059F028F0823071F0833081F00895862F72
:1004A00080680E94AA01089580E4860F80680E94F7
:1004B000AA01089584E90E94AA01089584ED0E948A
:1004C000AA010895880F991FFC01EC58FF4F44E0E2
:1004D000808191810E945F000895880F991FFC011F
:1004E000EC58FF4F44E06BE970E0808191810E94FD
:1004F0005F000895CF930E94CA00C0E005C08C2F12
:1005000090E00E946D02CF5FCA30C8F3CF9108958A
:100510000F931F93CF93DF9300D000D0CDB7DEB7FA
:100520008B01880F991FFC01EC58FF4F44E0BE017E
:100530006F5F7F4F808191810E948900B801CE0159
:1005400001960E943D0C892B11F080E001C081E0F2
:100550000F900F900F900F90DF91CF911F910F91FF
:1005600008958091360681111DC080914506813025
:1005700019F0823061F054C18FE990E00E948C0B39
:1005800084E08093360685E08093350649C188EB88
:1005900090E00E948C0B84E08093360683E0809389
:1005A00035063EC1813009F580914506823079F0EB
:1005B0008330C1F0813009F033C188EB90E00E94B4
:1005C0008C0B84E0809336061092350629C188EBA7
:1005D00090E00E948C0B84E08093360682E080934A
:1005E00035061EC1109236061BC1823009F045C087
:1005F000E09145068E2F90E0FC013197E830F1053F
:1006000008F00EC1E65DFF4F0C94370C81E00E94AC
:10061000980983EC90E00E948C0B02C182E00E945A
:10062000980985ED90E00E948C0BFAC083E00E944F
:10063000980987EE90E00E948C0BF2C084E00E9443
:10064000980988EF90E00E948C0BEAC086E00E9437
:1006500098098AE091E00E948C0BE2C087E00E943A
:10066000980983E291E00E948C0BDAC083E08093CA
:100670003606D6C010923606D3C0833009F042C089
:10068000E09145068E2F90E0FC013197E730F105AF
:1006900008F0C6C0EE5CFF4F0C94370C8AE00E9455
:1006A00098098DE391E00E948C0BBAC08BE00E9408
:1006B00098098FE491E00E948C0BB2C08CE00E94FC
:1006C000980982E691E00E948C0BAAC08DE00E94FE
:1006D000980984E791E00E948C0BA2C08EE00E94F2
:1006E000980987E891E00E948C0B9AC08FE00E94E5
:1006F000980989E991E00E948C0B92C082E0809376
:1007000036068EC0843009F08BC080913506823069
:1007100041F128F4882351F08130A1F081C0843068
:10072000D9F170F1853009F45BC07AC0809145063B
:10073000809334068CEA91E00E948C0B81E08093D8
:1007400035066EC08091340668E376E090E00E9442
:10075000620280EC91E00E948C0B81E0809336066F
:100760005FC0809145068093340690E00E946D0240
:1007700081ED91E00E948C0B81E08093360650C0A1
:1007800080914506809334068CEA91E00E948C0BA0
:1007900084E08093350644C08091340668E376E0B7
:1007A00090E00E948802882371F08FED9EE201970D
:1007B000F1F700C0000084EE91E00E948C0B82E013
:1007C000809336062DC08FED9EE20197F1F700C0B1
:1007D000000086EF91E00E948C0B1092360620C03C
:1007E0009091380680918800981314C09091390632
:1007F0008091890098130EC090913A0680918A00EA
:10080000981308C084EE91E00E948C0B81E08093E5
:10081000360606C086EF91E00E948C0B10923606D9
:1008200080913606811105C08AE092E00E948C0B0F
:100830000895813029F48CE192E00E948C0B089598
:10084000823029F481E592E00E948C0B0895833078
:1008500021F488EC92E00E948C0B0895CF93DF93F3
:10086000CDB7DEB7A8970FB6F894DEBF0FBECDBFE9
:100870000E94CE000E94D0018FEF0E94C6090E9404
:100880007A0261E088E10E94E70863E089E10E9462
:10089000E70883E0898392E09A831B821C821D8291
:1008A0008E831F8280E895E2A0E0B0E08887998778
:1008B000AA87BB8711E01C8787E198E09E878D8718
:1008C0001A8A198A188A1F86CE0101960E944C0A3C
:1008D0000E94B10263E08FE00E94E70863E08DE0D0
:1008E0000E94E70861E08EE00E94E70863E08CE088
:1008F0000E94E70880E48B8B80E18C8B80E28D8BFB
:100900001E8A1F8A188E1A8E198ECE0143960E9457
:1009100076090E9472091F8F18A319A31AA21BA29D
:100920001CA2F12C01C011E00E94190260E080E0DD
:100930000E9447028BE093E00E941D0260E081E08C
:100940000E94470284E193E00E941D020E94EF0092
:100950008035E1F3813019F0823029F0F7CF0E9421
:10096000190200E004C00E941902D12C18C160E0F5
:1009700080E00E9447028CE193E00E941D0260E04B
:1009800081E00E94470217C00E94EF00803599F075
:10099000E2E2F0E0EC0FFD1FE00FF11D8083602F1D
:1009A00081E00E9447028AE20E9484010F5F0330C7
:1009B000F0F210E002C01111E7CF20E040E014C0D7
:1009C000822F90E0E2E2F0E0EC0FFD1FE80FF91F4C
:1009D0003081EFE1F0E0EC0FFD1FE80FF91F80819F
:1009E000381301C04F5F2F5F233050F3433009F4B9
:1009F00046C0F39423E0F2121EC064E080E00E943F
:100A0000E70860E080E00E9447028CE293E00E94E9
:100A10001D0260E081E00E94470286EA93E00E94A6
:100A20001D028FEF9FE423EC815090402040E1F7BE
:100A300000C0000079CF60E080E00E94470283E4BC
:100A400093E00E941D0260E081E00E9447028AE577
:100A500093E00E941D028FEF91EE24E081509040C0
:100A60002040E1F700C0000060E081E00E94470202
:100A700085EA93E00E941D0200E011E078CF60E07B
:100A800080E00E94470281E793E00E941D0260E03F
:100A900081E00E9447028AE893E00E941D020E94C2
:100AA000EF00803561F3813021F0823009F459C0C4
:100AB0005CCF0E94190260E080E00E94470288ED4E
:100AC00093E00E941D020E94EF00082F803599F3E9
:100AD00060E081E00E944702602F70E080E090E0DB
:100AE0000E9430028FED9EE20197F1F700C00000F6
:100AF00060E081E00E94470284EA93E00E941D02C8
:100B0000E12C60E080E00E9447028EEB93E00E94BF
:100B10001D020E94EF008035A1F38F3079F41E8E04
:100B2000BE01655E7F4F802F90E00E9462028FEDD4
:100B30009EE20197F1F700C00000F6CE92E09E150C
:100B400000F3EBE1F0E0EC0FFD1FEE0DF11D8083F3
:100B50006E2D81E00E9447028AE20E948401E394A4
:100B6000D0CF0E94190260E080E00E94470287ED2A
:100B700093E00E941D020E94EF00082F803589F348
:100B800061E081E00E944702602F70E080E090E029
:100B90000E943002802F90E00E946D02C5CE0E941C
:100BA000190260E080E00E9447028DEE93E00E940F
:100BB0001D0200E503C00E94EF00082F0035D9F3A5
:100BC0006CE080E00E944702602F70E080E090E0DF
:100BD0000E94300260E081E00E9447028AEF93E0C9
:100BE0000E941D02E12C60C08AE20E948401E5E2BD
:100BF000F0E0EC0FFD1FEE0DF11D1083E39423E0F8
:100C0000E21252C0BE016B5D7F4F802F90E00E94C8
:100C1000880281114FC0D39483E0D81229C00E946A
:100C2000190260E080E00E9447028CE094E00E949C
:100C30001D0260E081E00E94470280E294E00E9491
:100C40001D0264E080E00E94E70860E082E00E940C
:100C500047028CE293E00E941D029FEF23ED80E3A8
:100C6000915020408040E1F700C0000011E05CCED0
:100C70000E94190260E080E00E94470287E394E04E
:100C80000E941D0260E081E00E9447028AE494E035
:100C90000E941D029FEF29E688E19150204080408C
:100CA000E1F700C000007BCF0E94EF00182F8035D5
:100CB000D9F39ACF0E94190260E080E00E944702B7
:100CC00086E594E00E941D029FEF24E38CE09150A2
:100CD00020408040E1F700C000000E94190260E05F
:100CE00080E00E94470280E694E00E941D0260E0DE
:100CF00081E00E94470282E794E00E941D0260E0CA
:100D000082E00E94470287E894E00E941D0260E0B2
:100D100083E00E9447028BE994E00E941D0280E577
:100D200002C00E94EF008035E1F38330E9F128F43E
:100D3000813061F0823009F1D0CF853009F462C092
:100D400008F449C0863009F4EECDC7CF81E00E9497
:100D500098090E94190260E080E00E9447028DEA33
:100D600094E00E941D029FEF24E38CE0915020400C
:100D70008040E1F700C00000B0CF82E00E949809F7
:100D80000E94190260E080E00E9447028EEB94E02E
:100D90000E941D029FEF24E38CE091502040804090
:100DA000E1F700C0000099CF83E00E9498090E94FB
:100DB000190260E080E00E9447028FEC94E00E94FC
:100DC0001D029FEF24E38CE0915020408040E1F72A
:100DD00000C0000082CF84E00E9498090E9419029E
:100DE00060E080E00E94470284EE94E00E941D02D1
:100DF0009FEF24E38CE0915020408040E1F700C059
:100E000000006BCF0E94190260E080E00E94470260
:100E100089EF94E00E941D0260E081E00E94470299
:100E20008BE095E00E941D0260E082E00E94470294
:100E30008BE195E00E941D0260E083E00E94470282
:100E40008CE295E00E941D0280E502C00E94EF0046
:100E50008035E1F38330D9F128F4813051F08230CC
:100E6000F9F0DBC0843009F449C0853009F435CF8E
:100E7000D4C086E00E9498090E94190260E080E0D8
:100E80000E94470280E495E00E941D029FEF24E348
:100E90008CE0915020408040E1F700C00000BDC0D0
:100EA00087E00E9498090E94190260E080E00E9499
:100EB000470280E595E00E941D029FEF24E38CE04D
:100EC000915020408040E1F700C00000A6C088E0BB
:100ED0000E9498090E94190260E080E00E94470287
:100EE00081E695E00E941D029FEF24E38CE0915083
:100EF00020408040E1F700C000008FC00E9419022E
:100F000060E080E00E94470284E795E00E941D02B5
:100F100060E081E00E94470289E895E00E941D029E
:100F200060E082E00E9447028BE995E00E941D028A
:100F300060E083E00E9447028DEA95E00E941D0276
:100F400080E502C00E94EF008035E1F390E0FC01F3
:100F50003197E730F10508F057C0E75CFF4F0C947C
:100F6000370C8AE00E9498090E94190260E080E034
:100F70000E9447028FEB95E00E941D0245C08BE066
:100F80000E9498090E94190260E080E00E944702D6
:100F900082ED95E00E941D0237C08CE00E94980906
:100FA0000E94190260E080E00E94470286EE95E010
:100FB0000E941D0229C08DE00E9498090E9419021A
:100FC00060E080E00E94470289EF95E00E941D02E8
:100FD0001BC08EE00E9498090E94190260E080E028
:100FE0000E9447028DE096E00E941D020DC08FE036
:100FF0000E9498090E94190260E080E00E94470266
:1010000080E296E00E941D029FEF24E38CE0915065
:1010100020408040E1F700C000009FEF24E38CE017
:10102000915020408040E1F700C0000056CE8091F2
:10103000370690E0885C994F0E946F0B80913706CD
:10104000282F30E0F901E85CF94F90819D30B1F430
:10105000E8E3F6E0D901A85CB94F1C92109237067C
:1010600080818053808391819053918392819053AA
:101070009283809345060E94B10208958F5F80930A
:1010800037060895982F9695969596959130E1F0AC
:1010900030F0923071F1933009F440C008959BB361
:1010A000877021E030E0082E02C0220F331F0A941F
:1010B000E2F770E002C0660F771F8A95E2F720958D
:1010C0002923622B6BBB089598B3877021E030E031
:1010D000082E02C0220F331F0A94E2F770E002C00C
:1010E000660F771F8A95E2F720952923622B68BB4C
:1010F000089595B3877021E030E0082E02C0220FDA
:10110000331F0A94E2F770E002C0660F771F8A95DA
:10111000E2F720952923622B65BB089592B387706F
:1011200021E030E0082E02C0220F331F0A94E2F7BC
:1011300070E002C0660F771F8A95E2F72095292399
:10114000622B62BB0895982F96959695969591304F
:10115000A1F028F09230F9F0933059F1089529B3B5
:10116000877030E0A90102C0559547958A95E2F74E
:10117000CA018170FB018083089526B3877030E037
:10118000A90102C0559547958A95E2F7CA01817079
:10119000FB018083089523B3877030E0A90102C06A
:1011A000559547958A95E2F7CA018170FB018083C6
:1011B000089520B3877030E0A90102C05595479586
:1011C0008A95E2F7CA018170FB0180830895282F78
:1011D0002695269526958770613009F469C008F434
:1011E00046C0633019F1643009F07BC030E0220F53
:1011F000331FF901ED56FF4F0190F081E02D608122
:1012000041E050E0DA0102C0AA0FBB1F8A95E2F765
:10121000CD01962F982B9083F901E557FF4F019050
:10122000F081E02D9081892B8083089530E0220F9A
:10123000331FF901ED56FF4F0190F081E02D6081E1
:1012400041E050E0DA0102C0AA0FBB1F8A95E2F725
:10125000CD01962F982B9083F901E557FF4F019010
:10126000F081E02D9081809589238083089530E07E
:10127000220F331FF901ED56FF4F0190F081E02D51
:10128000608141E050E0DA0102C0AA0FBB1F8A95DD
:10129000E2F7CD019A2F909596239083F901E557B7
:1012A000FF4F0190F081E02D9081892B808308957C
:1012B000E22FF0E0EE0FFF1FED56FF4F0190F0819F
:1012C000E02D408121E030E0B90102C0660F771FB8
:1012D0008A95E2F7CB0180958423808380B7846070
:1012E00080BF08958FB780688FBF0895FC01848107
:1012F0009CEF980F943028F48EB181608EB9848170
:1013000084509081892B9181892B9281892B9381A3
:10131000892B9581892B903849F4268137812115B5
:10132000310521F030933E0620933D068DB9089596
:101330008FB9779BFECF8FB108951F920F920FB692
:101340000F9211242F933F934F935F936F937F934B
:101350008F939F93AF93BF93EF93FF93E0913D06DD
:10136000F0913E06309709F00995FF91EF91BF91FA
:10137000AF919F918F917F916F915F914F913F912D
:101380002F910F900FBE0F901F901895882314F087
:10139000880F82B98CE080B981B18E7F81B981B12B
:1013A0008D7F81B986B7806486BF86B7846086BF2B
:1013B0000895882394F0880F83B983B18E7F83B911
:1013C00086B78F7D86BF86B7806886BF06B607FE64
:1013D000FDCF81B1887F8831E1F70895882394F0AB
:1013E000880F83B983B1816083B986B78F7D86BF4B
:1013F00086B7806886BF06B607FEFDCF81B1887FBD
:101400008034E1F7089586B7806286BF86B780682A
:1014100086BF06B607FEFDCF81B1887F8830E1F731
:10142000089586B7806286BF86B7806886BF06B695
:1014300007FEFDCF81B1887F8031E1F7089586B73F
:10144000806186BF86B7806886BF8FE99FE001977D
:10145000F1F700C00000089583B986B7806886BFA1
:1014600006B607FEFDCF81B1887F8832E1F7089587
:10147000FC01892B41F096B7906896BF06B607FE2F
:10148000FDCF83B18083089586B7806486BF0895B9
:1014900086B78F7B86BF08950F931F93CF93DF93FB
:1014A00000D000D01F92CDB7DEB78C0182E1F801E9
:1014B000A6E4B6E001900D928A95E1F719821A82AE
:1014C0001C821B821D82F801808190E0880F991F89
:1014D000880F991F880F991F9A81892B8A838A8187
:1014E0008AB980B5806880BD8281F0E48F9FC00199
:1014F00011249981892B8983F8018381F0E18F9FE1
:10150000C00111249981892B8983F801848190E09D
:10151000880F991F880F991F880F991F9981892B10
:1015200089832581822F837090E0880F991F99818C
:10153000892B8983273019F48AB184608AB9F8012C
:101540008681823018F49981892B8983998180B5AD
:10155000892B80BDF80182818130A9F48781908533
:10156000A185B2859C01AD01220F331F441F551F79
:1015700060E074E284EF90E00E94150C2150310984
:101580003C832B8342C0F80183858230E9F4878154
:101590009085A185B285880F991FAA1FBB1F880F50
:1015A000991FAA1FBB1F9C01AD01220F331F441FAF
:1015B000551F60E074E284EF90E00E94150C21500A
:1015C00031093C832B8321C0F80187819085A18557
:1015D000B285880F991FAA1FBB1F880F991FAA1FCA
:1015E000BB1F9C01AD01220F331F441F551F220F4B
:1015F000331F441F551F60E074E284EF90E00E94A7
:10160000150C215031093C832B838B819C818F3FAA
:101610009105C9F0C0F08B819C8188279F709D83C4
:101620008B819C8199279C838B838B819C8189B939
:1016300080B58F7780BD9D8180B5892B80BD80B5B9
:10164000806880BD08C08B819C8199279C838B8397
:101650008B819C8189B9F8018181882319F1848566
:101660009585009739F090934406809343068AB19C
:1016700080688AB9F80186859785009739F090933C
:101680004206809341068AB180628AB9F801808956
:101690009189009739F09093400680933F068AB174
:1016A00080648AB90F900F900F900F900F90DF9188
:1016B000CF911F910F91089520914706213021F07D
:1016C000233011F05D9BFECF20914B06273029F48B
:1016D0002AB12E7F9170922B9AB98CB90895FC0192
:1016E00011821082909147069250923010F05F9BC9
:1016F000FECF80914B06873051F48AB18695817078
:101700009CB1382F20E0292B3183208308952CB100
:1017100030E0318320830895CF93DF93EC0104C040
:10172000219690E00E945C0B88818111F9CFDF91B6
:10173000CF9108951F920F920FB60F9211242F93FD
:101740003F934F935F936F937F938F939F93AF9349
:10175000BF93EF93FF93E0914306F09144063097D7
:1017600009F00995FF91EF91BF91AF919F918F91F2
:101770007F916F915F914F913F912F910F900FBE8D
:101780000F901F9018951F920F920FB60F92112471
:101790002F933F934F935F936F937F938F939F9379
:1017A000AF93BF93EF93FF93E0914106F091420610
:1017B000309709F00995FF91EF91BF91AF919F91FB
:1017C0008F917F916F915F914F913F912F910F90EA
:1017D0000FBE0F901F9018951F920F920FB60F9289
:1017E00011242F933F934F935F936F937F938F9326
:1017F0009F93AF93BF93EF93FF93E0913F06F091D8
:101800004006309709F00995FF91EF91BF91AF9194
:101810009F918F917F916F915F914F913F912F9108
:101820000F900FBE0F901F901895A1E21A2EAA1BC1
:10183000BB1BFD010DC0AA1FBB1FEE1FFF1FA21780
:10184000B307E407F50720F0A21BB30BE40BF50B7D
:10185000661F771F881F991F1A9469F76095709506
:10186000809590959B01AC01BD01CF010895EE0FCD
:10187000FF1F0590F491E02D0994FB01DC018D918F
:10188000019080190110D9F3990B0895F894FFCFB6
:101890000708090A0405060B0102030C0D000F10CE
:1018A00008090A0BD200DC00F000FA000401100164
:1018B00018012001280138010101013B00380035E1
:1018C0000032003A00370034003100242424000D97
:1018D000456E7465722041646D696E20506173734A
:1018E000776F7264203A0D000D456E746572204961
:1018F000440D000D446F6F72206973204F70656E48
:1019000065642E0D000D446F6F7220697320436C67
:101910006F7365642E0D000D41697243204F4E2098
:101920006973204F4E2E0D000D41697243204F4EBA
:10193000206973204F46462E0D000D416C6C204CE3
:101940006967687473204F4E20697320446F6E6519
:101950002E0D000D416C6C206C6967687473204F0C
:10196000666620697320446F6E652E0D000D526F00
:101970006F6D2031204C69676874204F4E0D000D4B
:10198000526F6F6D2031204C69676874204F464656
:101990000D000D526F6F6D2032204C696768742006
:1019A0004F4E0D000D526F6F6D2032204C696768ED
:1019B00074204F46460D000D526F6F6D2033204C42
:1019C00069676874204F4E0D000D526F6F6D2033A4
:1019D000204C69676874204F46460D000D456E74B3
:1019E00065722050617373776F7264203A200D0026
:1019F0000D557365722069732061646465642E0DF2
:101A0000000D557365722069732064656C6574659B
:101A1000642E0D000D4C6F6720696E205375636353
:101A20006573730D0D000D50617373776F726420D1
:101A300069732077726F6E670D00312D2041646DE0
:101A4000696E0D322D20557365720D000D41646D68
:101A5000696E204D6F6465203A0D312D204164641C
:101A600020557365720D322D2044656C65746520B8
:101A7000557365720D332D20476F206D61696E0DB2
:101A8000000D55736572204D6F6465203A0D312D40
:101A9000204F70656E20446F6F720D322D20436CA5
:101AA0006F736520446F6F720D332D20416972434F
:101AB000204F4E0D342D2041697243204F46460D74
:101AC000352D20416C6C204C6967687473204F4E33
:101AD0000D362D20416C6C206C6967687473204F43
:101AE00066660D372D20526F6F6D730D382D2047B0
:101AF0006F206D61696E0D000D312D205231204F28
:101B00004E0D322D205231204F46460D332D20529E
:101B100032204F4E0D342D205232204F46460D3587
:101B20002D205233204F4E0D362D205233204F465C
:101B3000460D372D204261636B0D0020313A416420
:101B40006D696E0020323A557365720020456E74DF
:101B500065722070617373776F7264007468696571
:101B6000662121212120202020202020202020202B
:101B700020200077726F6E672070617373776F72C9
:101B800064202020202020202000747279206167AA
:101B900061696E202020202020202020202020206D
:101BA0000073656C65637420313A41646420757319
:101BB0006572202020202020200073656C656374EE
:101BC00020323A52656D6F766520757365722020FC
:101BD0002020200020202020202020202020202025
:101BE0002020202020202020202020202000456EA2
:101BF0007465722050617373776F726420202020A7
:101C00002020202020200020456E74657220494449
:101C10002020202020202020202020200020456E71
:101C20007465722049443A20200020456E74657224
:101C30002070617373776F72643A20002041636390
:101C4000657373204661696C656420212121200041
:101C500020416E7461206D656E20796120336D20A6
:101C6000416E74612121002057726F6E67205061B0
:101C70007373776F726420212000205472792041A1
:101C80006761696E20002057656C636F6D65200089
:101C9000204F7065726174696F6E2053656C656367
:101CA0007400312D446F6F724F4E202020322D442E
:101CB0006F6F724F666600332D4143204F6E2020B8
:101CC0002020342D4143204F666600352D4C696736
:101CD000687453797320362D457869740020446FF9
:101CE0006F72206973206F70656E656420002044F8
:101CF0006F6F7220697320436C6F736564200020DE
:101D000041697220436F6E2E206973206F70656E7B
:101D1000656420002041697220436F6E2E20697334
:101D200020636C6F73656420004C696768745F534F
:101D300079733A20352D4D61696E00312D416C6CFF
:101D4000204C6967687473204F6E00322D416C6CB3
:101D5000204C6967687473204F666600332D436FAB
:101D60006E747261737420342D526F6F6D73200026
:101D700020416C6C206C6967687473206F6E200062
:101D800020416C6C206C6967687473206F666620F4
:101D90000020436F6E747261737420436F6E7472AF
:101DA0006F6C200020526F6F6D73204C69676874F0
:101DB0003A20372D4D61696E00312D52315F4F6EE3
:101DC0002020322D52315F4F666600332D52325F34
:101DD0004F6E2020342D52325F4F666600352D52F3
:101DE000335F4F6E2020362D52335F4F66660020E2
:101DF000526F6F6D2031206C69676874206F6E20A0
:101E0000200020526F6F6D2031206C69676874204C
:101E10006F666620200020526F6F6D2032206C6943
:101E2000676874206F6E20200020526F6F6D203223
:101E3000206C69676874206F666620200020526FEE
:101E40006F6D2033206C69676874206F6E202000EE
:101E500020526F6F6D2033206C69676874206F6645
:041E600066202000D8
:00000001FF
